{
  "_format": "hh-sol-artifact-1",
  "contractName": "MyNFTLiquidityPool",
  "sourceName": "contracts/Greeter.sol",
  "abi": [
    {
      "inputs": [],
      "stateMutability": "nonpayable",
      "type": "constructor"
    },
    {
      "anonymous": false,
      "inputs": [
        {
          "indexed": true,
          "internalType": "address",
          "name": "owner",
          "type": "address"
        },
        {
          "indexed": true,
          "internalType": "address",
          "name": "spender",
          "type": "address"
        },
        {
          "indexed": false,
          "internalType": "uint256",
          "name": "value",
          "type": "uint256"
        }
      ],
      "name": "Approval",
      "type": "event"
    },
    {
      "anonymous": false,
      "inputs": [
        {
          "indexed": true,
          "internalType": "address",
          "name": "previousOwner",
          "type": "address"
        },
        {
          "indexed": true,
          "internalType": "address",
          "name": "newOwner",
          "type": "address"
        }
      ],
      "name": "OwnershipTransferred",
      "type": "event"
    },
    {
      "anonymous": false,
      "inputs": [
        {
          "indexed": true,
          "internalType": "address",
          "name": "from",
          "type": "address"
        },
        {
          "indexed": true,
          "internalType": "address",
          "name": "to",
          "type": "address"
        },
        {
          "indexed": false,
          "internalType": "uint256",
          "name": "value",
          "type": "uint256"
        }
      ],
      "name": "Transfer",
      "type": "event"
    },
    {
      "inputs": [],
      "name": "REWARD_PER_BLOCK",
      "outputs": [
        {
          "internalType": "uint256",
          "name": "",
          "type": "uint256"
        }
      ],
      "stateMutability": "view",
      "type": "function"
    },
    {
      "inputs": [
        {
          "internalType": "address",
          "name": "owner",
          "type": "address"
        },
        {
          "internalType": "address",
          "name": "spender",
          "type": "address"
        }
      ],
      "name": "allowance",
      "outputs": [
        {
          "internalType": "uint256",
          "name": "",
          "type": "uint256"
        }
      ],
      "stateMutability": "view",
      "type": "function"
    },
    {
      "inputs": [
        {
          "internalType": "address",
          "name": "spender",
          "type": "address"
        },
        {
          "internalType": "uint256",
          "name": "amount",
          "type": "uint256"
        }
      ],
      "name": "approve",
      "outputs": [
        {
          "internalType": "bool",
          "name": "",
          "type": "bool"
        }
      ],
      "stateMutability": "nonpayable",
      "type": "function"
    },
    {
      "inputs": [
        {
          "internalType": "address",
          "name": "account",
          "type": "address"
        }
      ],
      "name": "balanceOf",
      "outputs": [
        {
          "internalType": "uint256",
          "name": "",
          "type": "uint256"
        }
      ],
      "stateMutability": "view",
      "type": "function"
    },
    {
      "inputs": [
        {
          "internalType": "address",
          "name": "beneficiary",
          "type": "address"
        }
      ],
      "name": "calculateReward",
      "outputs": [
        {
          "internalType": "uint256",
          "name": "",
          "type": "uint256"
        }
      ],
      "stateMutability": "view",
      "type": "function"
    },
    {
      "inputs": [
        {
          "internalType": "address",
          "name": "",
          "type": "address"
        }
      ],
      "name": "checkpoints",
      "outputs": [
        {
          "internalType": "uint256",
          "name": "",
          "type": "uint256"
        }
      ],
      "stateMutability": "view",
      "type": "function"
    },
    {
      "inputs": [
        {
          "internalType": "address",
          "name": "beneficiary",
          "type": "address"
        }
      ],
      "name": "collect",
      "outputs": [],
      "stateMutability": "nonpayable",
      "type": "function"
    },
    {
      "inputs": [],
      "name": "decimals",
      "outputs": [
        {
          "internalType": "uint8",
          "name": "",
          "type": "uint8"
        }
      ],
      "stateMutability": "view",
      "type": "function"
    },
    {
      "inputs": [
        {
          "internalType": "address",
          "name": "spender",
          "type": "address"
        },
        {
          "internalType": "uint256",
          "name": "subtractedValue",
          "type": "uint256"
        }
      ],
      "name": "decreaseAllowance",
      "outputs": [
        {
          "internalType": "bool",
          "name": "",
          "type": "bool"
        }
      ],
      "stateMutability": "nonpayable",
      "type": "function"
    },
    {
      "inputs": [
        {
          "internalType": "address",
          "name": "sender",
          "type": "address"
        },
        {
          "internalType": "uint256",
          "name": "tokenId",
          "type": "uint256"
        }
      ],
      "name": "deposit",
      "outputs": [],
      "stateMutability": "nonpayable",
      "type": "function"
    },
    {
      "inputs": [
        {
          "internalType": "address",
          "name": "",
          "type": "address"
        }
      ],
      "name": "deposited_tokens",
      "outputs": [
        {
          "internalType": "uint256",
          "name": "",
          "type": "uint256"
        }
      ],
      "stateMutability": "view",
      "type": "function"
    },
    {
      "inputs": [
        {
          "internalType": "uint256",
          "name": "id",
          "type": "uint256"
        }
      ],
      "name": "getowner",
      "outputs": [
        {
          "internalType": "address",
          "name": "",
          "type": "address"
        }
      ],
      "stateMutability": "view",
      "type": "function"
    },
    {
      "inputs": [
        {
          "internalType": "address",
          "name": "",
          "type": "address"
        }
      ],
      "name": "has_deposited",
      "outputs": [
        {
          "internalType": "bool",
          "name": "",
          "type": "bool"
        }
      ],
      "stateMutability": "view",
      "type": "function"
    },
    {
      "inputs": [
        {
          "internalType": "address",
          "name": "spender",
          "type": "address"
        },
        {
          "internalType": "uint256",
          "name": "addedValue",
          "type": "uint256"
        }
      ],
      "name": "increaseAllowance",
      "outputs": [
        {
          "internalType": "bool",
          "name": "",
          "type": "bool"
        }
      ],
      "stateMutability": "nonpayable",
      "type": "function"
    },
    {
      "inputs": [],
      "name": "my_token",
      "outputs": [
        {
          "internalType": "contract ERC721",
          "name": "",
          "type": "address"
        }
      ],
      "stateMutability": "view",
      "type": "function"
    },
    {
      "inputs": [],
      "name": "name",
      "outputs": [
        {
          "internalType": "string",
          "name": "",
          "type": "string"
        }
      ],
      "stateMutability": "view",
      "type": "function"
    },
    {
      "inputs": [
        {
          "internalType": "address",
          "name": "operator",
          "type": "address"
        },
        {
          "internalType": "address",
          "name": "from",
          "type": "address"
        },
        {
          "internalType": "uint256",
          "name": "tokenId",
          "type": "uint256"
        },
        {
          "internalType": "bytes",
          "name": "data",
          "type": "bytes"
        }
      ],
      "name": "onERC721Received",
      "outputs": [
        {
          "internalType": "bytes4",
          "name": "",
          "type": "bytes4"
        }
      ],
      "stateMutability": "nonpayable",
      "type": "function"
    },
    {
      "inputs": [],
      "name": "owner",
      "outputs": [
        {
          "internalType": "address",
          "name": "",
          "type": "address"
        }
      ],
      "stateMutability": "view",
      "type": "function"
    },
    {
      "inputs": [],
      "name": "renounceOwnership",
      "outputs": [],
      "stateMutability": "nonpayable",
      "type": "function"
    },
    {
      "inputs": [
        {
          "internalType": "uint256",
          "name": "tokenId",
          "type": "uint256"
        }
      ],
      "name": "setapprove",
      "outputs": [],
      "stateMutability": "nonpayable",
      "type": "function"
    },
    {
      "inputs": [],
      "name": "symbol",
      "outputs": [
        {
          "internalType": "string",
          "name": "",
          "type": "string"
        }
      ],
      "stateMutability": "view",
      "type": "function"
    },
    {
      "inputs": [],
      "name": "totalSupply",
      "outputs": [
        {
          "internalType": "uint256",
          "name": "",
          "type": "uint256"
        }
      ],
      "stateMutability": "view",
      "type": "function"
    },
    {
      "inputs": [
        {
          "internalType": "address",
          "name": "recipient",
          "type": "address"
        },
        {
          "internalType": "uint256",
          "name": "amount",
          "type": "uint256"
        }
      ],
      "name": "transfer",
      "outputs": [
        {
          "internalType": "bool",
          "name": "",
          "type": "bool"
        }
      ],
      "stateMutability": "nonpayable",
      "type": "function"
    },
    {
      "inputs": [
        {
          "internalType": "address",
          "name": "sender",
          "type": "address"
        },
        {
          "internalType": "address",
          "name": "recipient",
          "type": "address"
        },
        {
          "internalType": "uint256",
          "name": "amount",
          "type": "uint256"
        }
      ],
      "name": "transferFrom",
      "outputs": [
        {
          "internalType": "bool",
          "name": "",
          "type": "bool"
        }
      ],
      "stateMutability": "nonpayable",
      "type": "function"
    },
    {
      "inputs": [
        {
          "internalType": "address",
          "name": "newOwner",
          "type": "address"
        }
      ],
      "name": "transferOwnership",
      "outputs": [],
      "stateMutability": "nonpayable",
      "type": "function"
    },
    {
      "inputs": [],
      "name": "withdraw",
      "outputs": [],
      "stateMutability": "nonpayable",
      "type": "function"
    }
  ],
  "bytecode": "0x608060405267016345785d8a0000600b553480156200001d57600080fd5b506040518060400160405280600681526020016542616e616e6160d01b815250604051806040016040528060038152602001624d424160e81b815250620000736200006d620000cd60201b60201c565b620000d1565b81516200008890600490602085019062000121565b5080516200009e90600590602084019062000121565b5050600980546001600160a01b03191673490f137b94478b37ab4c4140219980a00f72fba71790555062000204565b3390565b600080546001600160a01b038381166001600160a01b0319831681178455604051919092169283917f8be0079c531659141344cd1fd0a4f28419497f9722a3daafe3b4186f6b6457e09190a35050565b8280546200012f90620001c7565b90600052602060002090601f0160209004810192826200015357600085556200019e565b82601f106200016e57805160ff19168380011785556200019e565b828001600101855582156200019e579182015b828111156200019e57825182559160200191906001019062000181565b50620001ac929150620001b0565b5090565b5b80821115620001ac5760008155600101620001b1565b600181811c90821680620001dc57607f821691505b60208210811415620001fe57634e487b7160e01b600052602260045260246000fd5b50919050565b61145480620002146000396000f3fe608060405234801561001057600080fd5b506004361061018e5760003560e01c80635db28484116100de578063975532dc11610097578063d82e396211610071578063d82e396214610384578063dbb51d6e14610397578063dd62ed3e146103b7578063f2fde38b146103f057600080fd5b8063975532dc14610355578063a457c2d71461035e578063a9059cbb1461037157600080fd5b80635db28484146102d857806370a08231146102f8578063715018a6146103215780637456d424146103295780638da5cb5b1461033c57806395d89b411461034d57600080fd5b8063303599511161014b5780633ccfd60b116101255780633ccfd60b146102875780633f48d0101461028f57806347e7ef24146102b25780634845ae7a146102c557600080fd5b8063303599511461023a578063313ce56714610265578063395093511461027457600080fd5b806306ec16f81461019357806306fdde03146101a8578063095ea7b3146101c6578063150b7a02146101e957806318160ddd1461021557806323b872dd14610227575b600080fd5b6101a66101a1366004611192565b610403565b005b6101b0610439565b6040516101bd91906111af565b60405180910390f35b6101d96101d4366004611204565b6104cb565b60405190151581526020016101bd565b6101fc6101f7366004611230565b6104e1565b6040516001600160e01b031990911681526020016101bd565b6003545b6040519081526020016101bd565b6101d96102353660046112cf565b610560565b60095461024d906001600160a01b031681565b6040516001600160a01b0390911681526020016101bd565b604051601281526020016101bd565b6101d9610282366004611204565b61060a565b6101a6610646565b6101d961029d366004611192565b60086020526000908152604090205460ff1681565b6101a66102c0366004611204565b61073a565b61024d6102d3366004611310565b6109ab565b6102196102e6366004611192565b60076020526000908152604090205481565b610219610306366004611192565b6001600160a01b031660009081526001602052604090205490565b6101a6610a1f565b6101a6610337366004611310565b610a85565b6000546001600160a01b031661024d565b6101b0610aec565b610219600b5481565b6101d961036c366004611204565b610afb565b6101d961037f366004611204565b610b94565b610219610392366004611192565b610ba1565b6102196103a5366004611192565b60066020526000908152604090205481565b6102196103c5366004611329565b6001600160a01b03918216600090815260026020908152604080832093909416825291909152205490565b6101a66103fe366004611192565b610bf7565b600061040e82610ba1565b6001600160a01b038316600090815260066020526040902043905590506104353382610cc2565b5050565b60606004805461044890611362565b80601f016020809104026020016040519081016040528092919081815260200182805461047490611362565b80156104c15780601f10610496576101008083540402835291602001916104c1565b820191906000526020600020905b8154815290600101906020018083116104a457829003601f168201915b5050505050905090565b60006104d8338484610da1565b50600192915050565b6000846001600160a01b0316866001600160a01b031614156105375760405162461bcd60e51b815260040161052e906020808252600490820152636861686160e01b604082015260600190565b60405180910390fd5b610543600a84846110e4565b5061054e858561073a565b50630a85bd0160e11b95945050505050565b600061056d848484610ec5565b6001600160a01b0384166000908152600260209081526040808320338452909152902054828110156105f25760405162461bcd60e51b815260206004820152602860248201527f45524332303a207472616e7366657220616d6f756e74206578636565647320616044820152676c6c6f77616e636560c01b606482015260840161052e565b6105ff8533858403610da1565b506001949350505050565b3360008181526002602090815260408083206001600160a01b038716845290915281205490916104d89185906106419086906113b3565b610da1565b3360009081526008602052604090205460ff1661069d5760405162461bcd60e51b81526020600482015260156024820152744e6f20746f6b656e7320746f20776974686461727760581b604482015260640161052e565b6106a633610403565b60095433600081815260076020526040908190205490516323b872dd60e01b8152306004820152602481019290925260448201526001600160a01b03909116906323b872dd90606401600060405180830381600087803b15801561070957600080fd5b505af115801561071d573d6000803e3d6000fd5b5050336000908152600860205260409020805460ff191690555050565b6009546040516331a9108f60e11b8152600481018390526001600160a01b0390911690636352211e90602401602060405180830381865afa158015610783573d6000803e3d6000fd5b505050506040513d601f19601f820116820180604052508101906107a791906113cb565b6001600160a01b0316826001600160a01b0316146107fe5760405162461bcd60e51b815260206004820152601460248201527329b2b73232b91036bab9ba1031329037bbb732b960611b604482015260640161052e565b6001600160a01b03821660009081526008602052604090205460ff16156108675760405162461bcd60e51b815260206004820152601860248201527f53656e64657220616c7265616479206465706f73697465640000000000000000604482015260640161052e565b6001600160a01b0382166000908152600660205260409020546108a0576001600160a01b03821660009081526006602052604090204390555b6108a982610403565b60095460405163095ea7b360e01b8152306004820152602481018390526001600160a01b039091169063095ea7b390604401600060405180830381600087803b1580156108f557600080fd5b505af1158015610909573d6000803e3d6000fd5b50506009546040516323b872dd60e01b81526001600160a01b0386811660048301523060248301526044820186905290911692506323b872dd9150606401600060405180830381600087803b15801561096157600080fd5b505af1158015610975573d6000803e3d6000fd5b5050506001600160a01b039092166000908152600760209081526040808320939093556008905220805460ff1916600117905550565b6009546040516331a9108f60e11b8152600481018390526000916001600160a01b031690636352211e90602401602060405180830381865afa1580156109f5573d6000803e3d6000fd5b505050506040513d601f19601f82011682018060405250810190610a1991906113cb565b92915050565b6000546001600160a01b03163314610a795760405162461bcd60e51b815260206004820181905260248201527f4f776e61626c653a2063616c6c6572206973206e6f7420746865206f776e6572604482015260640161052e565b610a836000611094565b565b60095460405163095ea7b360e01b8152306004820152602481018390526001600160a01b039091169063095ea7b390604401600060405180830381600087803b158015610ad157600080fd5b505af1158015610ae5573d6000803e3d6000fd5b5050505050565b60606005805461044890611362565b3360009081526002602090815260408083206001600160a01b038616845290915281205482811015610b7d5760405162461bcd60e51b815260206004820152602560248201527f45524332303a2064656372656173656420616c6c6f77616e63652062656c6f77604482015264207a65726f60d81b606482015260840161052e565b610b8a3385858403610da1565b5060019392505050565b60006104d8338484610ec5565b3360009081526008602052604081205460ff16610bc057506000919050565b6001600160a01b038216600090815260066020526040902054610be381436113e8565b600b54610bf091906113ff565b9392505050565b6000546001600160a01b03163314610c515760405162461bcd60e51b815260206004820181905260248201527f4f776e61626c653a2063616c6c6572206973206e6f7420746865206f776e6572604482015260640161052e565b6001600160a01b038116610cb65760405162461bcd60e51b815260206004820152602660248201527f4f776e61626c653a206e6577206f776e657220697320746865207a65726f206160448201526564647265737360d01b606482015260840161052e565b610cbf81611094565b50565b6001600160a01b038216610d185760405162461bcd60e51b815260206004820152601f60248201527f45524332303a206d696e7420746f20746865207a65726f206164647265737300604482015260640161052e565b8060036000828254610d2a91906113b3565b90915550506001600160a01b03821660009081526001602052604081208054839290610d579084906113b3565b90915550506040518181526001600160a01b038316906000907fddf252ad1be2c89b69c2b068fc378daa952ba7f163c4a11628f55a4df523b3ef9060200160405180910390a35050565b6001600160a01b038316610e035760405162461bcd60e51b8152602060048201526024808201527f45524332303a20617070726f76652066726f6d20746865207a65726f206164646044820152637265737360e01b606482015260840161052e565b6001600160a01b038216610e645760405162461bcd60e51b815260206004820152602260248201527f45524332303a20617070726f766520746f20746865207a65726f206164647265604482015261737360f01b606482015260840161052e565b6001600160a01b0383811660008181526002602090815260408083209487168084529482529182902085905590518481527f8c5be1e5ebec7d5bd14f71427d1e84f3dd0314c0f7b2291e5b200ac8c7c3b925910160405180910390a3505050565b6001600160a01b038316610f295760405162461bcd60e51b815260206004820152602560248201527f45524332303a207472616e736665722066726f6d20746865207a65726f206164604482015264647265737360d81b606482015260840161052e565b6001600160a01b038216610f8b5760405162461bcd60e51b815260206004820152602360248201527f45524332303a207472616e7366657220746f20746865207a65726f206164647260448201526265737360e81b606482015260840161052e565b6001600160a01b038316600090815260016020526040902054818110156110035760405162461bcd60e51b815260206004820152602660248201527f45524332303a207472616e7366657220616d6f756e7420657863656564732062604482015265616c616e636560d01b606482015260840161052e565b6001600160a01b0380851660009081526001602052604080822085850390559185168152908120805484929061103a9084906113b3565b92505081905550826001600160a01b0316846001600160a01b03167fddf252ad1be2c89b69c2b068fc378daa952ba7f163c4a11628f55a4df523b3ef8460405161108691815260200190565b60405180910390a350505050565b600080546001600160a01b038381166001600160a01b0319831681178455604051919092169283917f8be0079c531659141344cd1fd0a4f28419497f9722a3daafe3b4186f6b6457e09190a35050565b8280546110f090611362565b90600052602060002090601f0160209004810192826111125760008555611158565b82601f1061112b5782800160ff19823516178555611158565b82800160010185558215611158579182015b8281111561115857823582559160200191906001019061113d565b50611164929150611168565b5090565b5b808211156111645760008155600101611169565b6001600160a01b0381168114610cbf57600080fd5b6000602082840312156111a457600080fd5b8135610bf08161117d565b600060208083528351808285015260005b818110156111dc578581018301518582016040015282016111c0565b818111156111ee576000604083870101525b50601f01601f1916929092016040019392505050565b6000806040838503121561121757600080fd5b82356112228161117d565b946020939093013593505050565b60008060008060006080868803121561124857600080fd5b85356112538161117d565b945060208601356112638161117d565b935060408601359250606086013567ffffffffffffffff8082111561128757600080fd5b818801915088601f83011261129b57600080fd5b8135818111156112aa57600080fd5b8960208285010111156112bc57600080fd5b9699959850939650602001949392505050565b6000806000606084860312156112e457600080fd5b83356112ef8161117d565b925060208401356112ff8161117d565b929592945050506040919091013590565b60006020828403121561132257600080fd5b5035919050565b6000806040838503121561133c57600080fd5b82356113478161117d565b915060208301356113578161117d565b809150509250929050565b600181811c9082168061137657607f821691505b6020821081141561139757634e487b7160e01b600052602260045260246000fd5b50919050565b634e487b7160e01b600052601160045260246000fd5b600082198211156113c6576113c661139d565b500190565b6000602082840312156113dd57600080fd5b8151610bf08161117d565b6000828210156113fa576113fa61139d565b500390565b60008160001904831182151516156114195761141961139d565b50029056fea26469706673582212205294e018736233cdedb95203e819a0425f1dfae0ea99694fbd65c4054c6fcb6864736f6c634300080b0033",
  "linkReferences": {},
  "deployedLinkReferences": {}
}