{
  "_format": "hh-sol-artifact-1",
  "contractName": "WhaleToken",
  "sourceName": "contracts/test.sol",
  "abi": [
    {
      "inputs": [],
      "stateMutability": "nonpayable",
      "type": "constructor"
    },
    {
      "anonymous": false,
      "inputs": [
        {
          "indexed": true,
          "internalType": "address",
          "name": "owner",
          "type": "address"
        },
        {
          "indexed": true,
          "internalType": "address",
          "name": "approved",
          "type": "address"
        },
        {
          "indexed": true,
          "internalType": "uint256",
          "name": "tokenId",
          "type": "uint256"
        }
      ],
      "name": "Approval",
      "type": "event"
    },
    {
      "anonymous": false,
      "inputs": [
        {
          "indexed": true,
          "internalType": "address",
          "name": "owner",
          "type": "address"
        },
        {
          "indexed": true,
          "internalType": "address",
          "name": "operator",
          "type": "address"
        },
        {
          "indexed": false,
          "internalType": "bool",
          "name": "approved",
          "type": "bool"
        }
      ],
      "name": "ApprovalForAll",
      "type": "event"
    },
    {
      "anonymous": false,
      "inputs": [
        {
          "indexed": true,
          "internalType": "address",
          "name": "previousOwner",
          "type": "address"
        },
        {
          "indexed": true,
          "internalType": "address",
          "name": "newOwner",
          "type": "address"
        }
      ],
      "name": "OwnershipTransferred",
      "type": "event"
    },
    {
      "anonymous": false,
      "inputs": [
        {
          "indexed": true,
          "internalType": "address",
          "name": "from",
          "type": "address"
        },
        {
          "indexed": true,
          "internalType": "address",
          "name": "to",
          "type": "address"
        },
        {
          "indexed": true,
          "internalType": "uint256",
          "name": "tokenId",
          "type": "uint256"
        }
      ],
      "name": "Transfer",
      "type": "event"
    },
    {
      "anonymous": false,
      "inputs": [
        {
          "indexed": false,
          "internalType": "uint256",
          "name": "id",
          "type": "uint256"
        },
        {
          "indexed": true,
          "internalType": "address",
          "name": "creator",
          "type": "address"
        },
        {
          "indexed": true,
          "internalType": "string",
          "name": "tokenUri",
          "type": "string"
        }
      ],
      "name": "minting",
      "type": "event"
    },
    {
      "inputs": [],
      "name": "MINT_PRICE",
      "outputs": [
        {
          "internalType": "uint256",
          "name": "",
          "type": "uint256"
        }
      ],
      "stateMutability": "view",
      "type": "function"
    },
    {
      "inputs": [
        {
          "internalType": "uint256",
          "name": "",
          "type": "uint256"
        }
      ],
      "name": "_tokenName",
      "outputs": [
        {
          "internalType": "string",
          "name": "",
          "type": "string"
        }
      ],
      "stateMutability": "view",
      "type": "function"
    },
    {
      "inputs": [
        {
          "internalType": "address",
          "name": "userAddress",
          "type": "address"
        }
      ],
      "name": "addAdmin",
      "outputs": [],
      "stateMutability": "nonpayable",
      "type": "function"
    },
    {
      "inputs": [
        {
          "internalType": "address[]",
          "name": "whitelister",
          "type": "address[]"
        }
      ],
      "name": "addwhitelister",
      "outputs": [],
      "stateMutability": "nonpayable",
      "type": "function"
    },
    {
      "inputs": [
        {
          "internalType": "address",
          "name": "to",
          "type": "address"
        },
        {
          "internalType": "uint256",
          "name": "tokenId",
          "type": "uint256"
        }
      ],
      "name": "approve",
      "outputs": [],
      "stateMutability": "nonpayable",
      "type": "function"
    },
    {
      "inputs": [
        {
          "internalType": "address",
          "name": "owner",
          "type": "address"
        }
      ],
      "name": "balanceOf",
      "outputs": [
        {
          "internalType": "uint256",
          "name": "",
          "type": "uint256"
        }
      ],
      "stateMutability": "view",
      "type": "function"
    },
    {
      "inputs": [],
      "name": "change_tokenURI",
      "outputs": [],
      "stateMutability": "nonpayable",
      "type": "function"
    },
    {
      "inputs": [
        {
          "internalType": "address",
          "name": "delBeneficiary",
          "type": "address"
        }
      ],
      "name": "deleteBeneficiary",
      "outputs": [],
      "stateMutability": "nonpayable",
      "type": "function"
    },
    {
      "inputs": [
        {
          "internalType": "address[]",
          "name": "deladdress",
          "type": "address[]"
        }
      ],
      "name": "delwhitelister",
      "outputs": [],
      "stateMutability": "nonpayable",
      "type": "function"
    },
    {
      "inputs": [
        {
          "internalType": "address",
          "name": "deleteaddress",
          "type": "address"
        }
      ],
      "name": "disableAdmin",
      "outputs": [],
      "stateMutability": "nonpayable",
      "type": "function"
    },
    {
      "inputs": [],
      "name": "getAdmin",
      "outputs": [
        {
          "internalType": "address[]",
          "name": "",
          "type": "address[]"
        }
      ],
      "stateMutability": "view",
      "type": "function"
    },
    {
      "inputs": [],
      "name": "getAdresses",
      "outputs": [
        {
          "internalType": "address[]",
          "name": "",
          "type": "address[]"
        }
      ],
      "stateMutability": "view",
      "type": "function"
    },
    {
      "inputs": [
        {
          "internalType": "uint256",
          "name": "tokenId",
          "type": "uint256"
        }
      ],
      "name": "getApproved",
      "outputs": [
        {
          "internalType": "address",
          "name": "",
          "type": "address"
        }
      ],
      "stateMutability": "view",
      "type": "function"
    },
    {
      "inputs": [],
      "name": "getBalance",
      "outputs": [
        {
          "internalType": "uint256",
          "name": "",
          "type": "uint256"
        }
      ],
      "stateMutability": "view",
      "type": "function"
    },
    {
      "inputs": [],
      "name": "getBeneAddress",
      "outputs": [
        {
          "internalType": "address",
          "name": "",
          "type": "address"
        }
      ],
      "stateMutability": "view",
      "type": "function"
    },
    {
      "inputs": [],
      "name": "getLimit",
      "outputs": [
        {
          "internalType": "uint256",
          "name": "",
          "type": "uint256"
        }
      ],
      "stateMutability": "view",
      "type": "function"
    },
    {
      "inputs": [],
      "name": "getMintPrice",
      "outputs": [
        {
          "internalType": "uint256",
          "name": "",
          "type": "uint256"
        }
      ],
      "stateMutability": "view",
      "type": "function"
    },
    {
      "inputs": [],
      "name": "getWhitelimit",
      "outputs": [
        {
          "internalType": "uint256",
          "name": "",
          "type": "uint256"
        }
      ],
      "stateMutability": "view",
      "type": "function"
    },
    {
      "inputs": [],
      "name": "getcurrentId",
      "outputs": [
        {
          "internalType": "uint256",
          "name": "",
          "type": "uint256"
        }
      ],
      "stateMutability": "view",
      "type": "function"
    },
    {
      "inputs": [],
      "name": "getpremint",
      "outputs": [
        {
          "internalType": "bool",
          "name": "",
          "type": "bool"
        }
      ],
      "stateMutability": "view",
      "type": "function"
    },
    {
      "inputs": [],
      "name": "getwhitelist",
      "outputs": [
        {
          "internalType": "address[]",
          "name": "",
          "type": "address[]"
        }
      ],
      "stateMutability": "view",
      "type": "function"
    },
    {
      "inputs": [
        {
          "internalType": "address",
          "name": "owner",
          "type": "address"
        },
        {
          "internalType": "address",
          "name": "operator",
          "type": "address"
        }
      ],
      "name": "isApprovedForAll",
      "outputs": [
        {
          "internalType": "bool",
          "name": "",
          "type": "bool"
        }
      ],
      "stateMutability": "view",
      "type": "function"
    },
    {
      "inputs": [
        {
          "internalType": "address",
          "name": "whitelister",
          "type": "address"
        }
      ],
      "name": "iswhitelister",
      "outputs": [
        {
          "internalType": "bool",
          "name": "",
          "type": "bool"
        }
      ],
      "stateMutability": "view",
      "type": "function"
    },
    {
      "inputs": [
        {
          "internalType": "string",
          "name": "tokenUri",
          "type": "string"
        },
        {
          "internalType": "string",
          "name": "realUri",
          "type": "string"
        }
      ],
      "name": "mint",
      "outputs": [
        {
          "internalType": "uint256",
          "name": "",
          "type": "uint256"
        }
      ],
      "stateMutability": "payable",
      "type": "function"
    },
    {
      "inputs": [
        {
          "internalType": "address",
          "name": "",
          "type": "address"
        }
      ],
      "name": "mintcount",
      "outputs": [
        {
          "internalType": "uint256",
          "name": "",
          "type": "uint256"
        }
      ],
      "stateMutability": "view",
      "type": "function"
    },
    {
      "inputs": [
        {
          "internalType": "string[]",
          "name": "uri",
          "type": "string[]"
        },
        {
          "internalType": "string[]",
          "name": "realUris",
          "type": "string[]"
        }
      ],
      "name": "mints",
      "outputs": [],
      "stateMutability": "payable",
      "type": "function"
    },
    {
      "inputs": [],
      "name": "name",
      "outputs": [
        {
          "internalType": "string",
          "name": "",
          "type": "string"
        }
      ],
      "stateMutability": "view",
      "type": "function"
    },
    {
      "inputs": [],
      "name": "owner",
      "outputs": [
        {
          "internalType": "address",
          "name": "",
          "type": "address"
        }
      ],
      "stateMutability": "view",
      "type": "function"
    },
    {
      "inputs": [
        {
          "internalType": "uint256",
          "name": "tokenId",
          "type": "uint256"
        }
      ],
      "name": "ownerOf",
      "outputs": [
        {
          "internalType": "address",
          "name": "",
          "type": "address"
        }
      ],
      "stateMutability": "view",
      "type": "function"
    },
    {
      "inputs": [],
      "name": "premint",
      "outputs": [
        {
          "internalType": "bool",
          "name": "",
          "type": "bool"
        }
      ],
      "stateMutability": "view",
      "type": "function"
    },
    {
      "inputs": [
        {
          "internalType": "string[]",
          "name": "uri",
          "type": "string[]"
        },
        {
          "internalType": "string[]",
          "name": "realUris",
          "type": "string[]"
        }
      ],
      "name": "premints",
      "outputs": [],
      "stateMutability": "payable",
      "type": "function"
    },
    {
      "inputs": [],
      "name": "renounceOwnership",
      "outputs": [],
      "stateMutability": "nonpayable",
      "type": "function"
    },
    {
      "inputs": [
        {
          "internalType": "address",
          "name": "from",
          "type": "address"
        },
        {
          "internalType": "address",
          "name": "to",
          "type": "address"
        },
        {
          "internalType": "uint256",
          "name": "tokenId",
          "type": "uint256"
        }
      ],
      "name": "safeTransferFrom",
      "outputs": [],
      "stateMutability": "nonpayable",
      "type": "function"
    },
    {
      "inputs": [
        {
          "internalType": "address",
          "name": "from",
          "type": "address"
        },
        {
          "internalType": "address",
          "name": "to",
          "type": "address"
        },
        {
          "internalType": "uint256",
          "name": "tokenId",
          "type": "uint256"
        },
        {
          "internalType": "bytes",
          "name": "_data",
          "type": "bytes"
        }
      ],
      "name": "safeTransferFrom",
      "outputs": [],
      "stateMutability": "nonpayable",
      "type": "function"
    },
    {
      "inputs": [
        {
          "internalType": "address",
          "name": "operator",
          "type": "address"
        },
        {
          "internalType": "bool",
          "name": "approved",
          "type": "bool"
        }
      ],
      "name": "setApprovalForAll",
      "outputs": [],
      "stateMutability": "nonpayable",
      "type": "function"
    },
    {
      "inputs": [
        {
          "internalType": "bytes4",
          "name": "interfaceId",
          "type": "bytes4"
        }
      ],
      "name": "supportsInterface",
      "outputs": [
        {
          "internalType": "bool",
          "name": "",
          "type": "bool"
        }
      ],
      "stateMutability": "view",
      "type": "function"
    },
    {
      "inputs": [],
      "name": "symbol",
      "outputs": [
        {
          "internalType": "string",
          "name": "",
          "type": "string"
        }
      ],
      "stateMutability": "view",
      "type": "function"
    },
    {
      "inputs": [
        {
          "internalType": "uint256",
          "name": "index",
          "type": "uint256"
        }
      ],
      "name": "tokenByIndex",
      "outputs": [
        {
          "internalType": "uint256",
          "name": "",
          "type": "uint256"
        }
      ],
      "stateMutability": "view",
      "type": "function"
    },
    {
      "inputs": [],
      "name": "tokenLimit",
      "outputs": [
        {
          "internalType": "uint256",
          "name": "",
          "type": "uint256"
        }
      ],
      "stateMutability": "view",
      "type": "function"
    },
    {
      "inputs": [
        {
          "internalType": "address",
          "name": "owner",
          "type": "address"
        },
        {
          "internalType": "uint256",
          "name": "index",
          "type": "uint256"
        }
      ],
      "name": "tokenOfOwnerByIndex",
      "outputs": [
        {
          "internalType": "uint256",
          "name": "",
          "type": "uint256"
        }
      ],
      "stateMutability": "view",
      "type": "function"
    },
    {
      "inputs": [
        {
          "internalType": "uint256",
          "name": "tokenId",
          "type": "uint256"
        }
      ],
      "name": "tokenURI",
      "outputs": [
        {
          "internalType": "string",
          "name": "",
          "type": "string"
        }
      ],
      "stateMutability": "view",
      "type": "function"
    },
    {
      "inputs": [
        {
          "internalType": "address",
          "name": "_owner",
          "type": "address"
        }
      ],
      "name": "tokensOfOwner",
      "outputs": [
        {
          "internalType": "uint256[]",
          "name": "",
          "type": "uint256[]"
        }
      ],
      "stateMutability": "view",
      "type": "function"
    },
    {
      "inputs": [],
      "name": "totalSupply",
      "outputs": [
        {
          "internalType": "uint256",
          "name": "",
          "type": "uint256"
        }
      ],
      "stateMutability": "view",
      "type": "function"
    },
    {
      "inputs": [
        {
          "internalType": "address",
          "name": "from",
          "type": "address"
        },
        {
          "internalType": "address",
          "name": "to",
          "type": "address"
        },
        {
          "internalType": "uint256",
          "name": "tokenId",
          "type": "uint256"
        }
      ],
      "name": "transferFrom",
      "outputs": [],
      "stateMutability": "nonpayable",
      "type": "function"
    },
    {
      "inputs": [
        {
          "internalType": "address",
          "name": "newOwner",
          "type": "address"
        }
      ],
      "name": "transferOwnership",
      "outputs": [],
      "stateMutability": "nonpayable",
      "type": "function"
    },
    {
      "inputs": [
        {
          "internalType": "address",
          "name": "_newBeneficiary",
          "type": "address"
        }
      ],
      "name": "updateBeneficiary",
      "outputs": [],
      "stateMutability": "nonpayable",
      "type": "function"
    },
    {
      "inputs": [
        {
          "internalType": "uint256",
          "name": "mintPrice",
          "type": "uint256"
        }
      ],
      "name": "updateMintPrice",
      "outputs": [],
      "stateMutability": "nonpayable",
      "type": "function"
    },
    {
      "inputs": [
        {
          "internalType": "uint256",
          "name": "_tokenLimit",
          "type": "uint256"
        }
      ],
      "name": "updateTokenLimit",
      "outputs": [],
      "stateMutability": "nonpayable",
      "type": "function"
    },
    {
      "inputs": [
        {
          "internalType": "uint256",
          "name": "_tokenLimit",
          "type": "uint256"
        }
      ],
      "name": "updateWhiteLimit",
      "outputs": [],
      "stateMutability": "nonpayable",
      "type": "function"
    },
    {
      "inputs": [],
      "name": "wallet",
      "outputs": [
        {
          "internalType": "uint256",
          "name": "",
          "type": "uint256"
        }
      ],
      "stateMutability": "view",
      "type": "function"
    },
    {
      "inputs": [],
      "name": "whitelistlimit",
      "outputs": [
        {
          "internalType": "uint256",
          "name": "",
          "type": "uint256"
        }
      ],
      "stateMutability": "view",
      "type": "function"
    }
  ],
  "bytecode": "0x60806040526005601555600260165560006018556000601960006101000a81548160ff0219169083151502179055506000601a5567016345785d8a0000601b553480156200004c57600080fd5b506040518060400160405280601281526020017f5765616c746879205768616c6520436c756200000000000000000000000000008152506040518060400160405280601281526020017f5765616c746879205768616c6520436c756200000000000000000000000000008152508160009080519060200190620000d19291906200030b565b508060019080519060200190620000ea9291906200030b565b5050506000620000ff6200030360201b60201c565b905080600a60006101000a81548173ffffffffffffffffffffffffffffffffffffffff021916908373ffffffffffffffffffffffffffffffffffffffff1602179055508073ffffffffffffffffffffffffffffffffffffffff16600073ffffffffffffffffffffffffffffffffffffffff167f8be0079c531659141344cd1fd0a4f28419497f9722a3daafe3b4186f6b6457e060405160405180910390a35033601760006101000a81548173ffffffffffffffffffffffffffffffffffffffff021916908373ffffffffffffffffffffffffffffffffffffffff160217905550600e339080600181540180825580915050600190039060005260206000200160009091909190916101000a81548173ffffffffffffffffffffffffffffffffffffffff021916908373ffffffffffffffffffffffffffffffffffffffff1602179055506001600b60003373ffffffffffffffffffffffffffffffffffffffff1673ffffffffffffffffffffffffffffffffffffffff16815260200190815260200160002060006101000a81548160ff021916908315150217905550600d339080600181540180825580915050600190039060005260206000200160009091909190916101000a81548173ffffffffffffffffffffffffffffffffffffffff021916908373ffffffffffffffffffffffffffffffffffffffff16021790555062000420565b600033905090565b8280546200031990620003bb565b90600052602060002090601f0160209004810192826200033d576000855562000389565b82601f106200035857805160ff191683800117855562000389565b8280016001018555821562000389579182015b82811115620003885782518255916020019190600101906200036b565b5b5090506200039891906200039c565b5090565b5b80821115620003b75760008160009055506001016200039d565b5090565b60006002820490506001821680620003d457607f821691505b60208210811415620003eb57620003ea620003f1565b5b50919050565b7f4e487b7100000000000000000000000000000000000000000000000000000000600052602260045260246000fd5b615d6880620004306000396000f3fe6080604052600436106102e35760003560e01c80637048027511610190578063ab92cbd5116100dc578063c33a733411610095578063d3ea98191161006f578063d3ea981914610b4c578063e985e9c514610b75578063eb9bce3814610bb2578063f2fde38b14610bc9576102e3565b8063c33a733414610ab9578063c87b56dd14610ae4578063c881a16914610b21576102e3565b8063ab92cbd5146109ca578063b295a00e146109e6578063b4bcd9bc14610a11578063b88d4fde14610a3a578063b94a6d0614610a63578063c002d23d14610a8e576102e3565b80638aa0fdad116101495780639a6c387a116101235780639a6c387a1461090e578063a1156b8814610939578063a22cb46514610976578063a7f93ebd1461099f576102e3565b80638aa0fdad146108885780638da5cb5b146108b857806395d89b41146108e3576102e3565b8063704802751461077c57806370a08231146107a5578063715018a6146107e2578063751e9a9c146107f95780637d3bca76146108225780638462151c1461084b576102e3565b80632f745c591161024f5780634f6ccce7116102085780635f93b125116101e25780635f93b125146106ae5780636352211e146106d75780636a0815c6146107145780636e9960c314610751576102e3565b80634f6ccce71461061b578063521eb2731461065857806356c7627e14610683576102e3565b80632f745c59146105185780633f61bbe01461055557806342842e0e1461057157806342edf4e51461059a5780634368a7af146105c557806348a1e66b146105f0576102e3565b80630da2e223116102a15780630da2e2231461040857806312065fe01461044557806318160ddd1461047057806321715b3d1461049b57806323b872dd146104c657806328df0f22146104ef576102e3565b8062728e46146102e857806301ffc9a71461031157806306fdde031461034e578063081812fc14610379578063095ea7b3146103b65780630aaffd2a146103df575b600080fd5b3480156102f457600080fd5b5061030f600480360381019061030a9190614aef565b610bf2565b005b34801561031d57600080fd5b5061033860048036038101906103339190614a28565b610c59565b604051610345919061553e565b60405180910390f35b34801561035a57600080fd5b50610363610cd3565b6040516103709190615559565b60405180910390f35b34801561038557600080fd5b506103a0600480360381019061039b9190614aef565b610d65565b6040516103ad9190615493565b60405180910390f35b3480156103c257600080fd5b506103dd60048036038101906103d89190614932565b610dea565b005b3480156103eb57600080fd5b50610406600480360381019061040191906147c7565b610f02565b005b34801561041457600080fd5b5061042f600480360381019061042a9190614aef565b610fc5565b60405161043c9190615559565b60405180910390f35b34801561045157600080fd5b5061045a611065565b604051610467919061583b565b60405180910390f35b34801561047c57600080fd5b506104856110b1565b604051610492919061583b565b60405180910390f35b3480156104a757600080fd5b506104b06110be565b6040516104bd919061583b565b60405180910390f35b3480156104d257600080fd5b506104ed60048036038101906104e8919061482c565b6110d4565b005b3480156104fb57600080fd5b506105166004803603810190610511919061496e565b611134565b005b34801561052457600080fd5b5061053f600480360381019061053a9190614932565b611500565b60405161054c919061583b565b60405180910390f35b61056f600480360381019061056a91906149b3565b6115a5565b005b34801561057d57600080fd5b506105986004803603810190610593919061482c565b61178a565b005b3480156105a657600080fd5b506105af6117aa565b6040516105bc919061553e565b60405180910390f35b3480156105d157600080fd5b506105da6117c1565b6040516105e7919061583b565b60405180910390f35b3480156105fc57600080fd5b506106056117cb565b604051610612919061553e565b60405180910390f35b34801561062757600080fd5b50610642600480360381019061063d9190614aef565b6117de565b60405161064f919061583b565b60405180910390f35b34801561066457600080fd5b5061066d611875565b60405161067a919061583b565b60405180910390f35b34801561068f57600080fd5b5061069861187b565b6040516106a5919061583b565b60405180910390f35b3480156106ba57600080fd5b506106d560048036038101906106d09190614aef565b611881565b005b3480156106e357600080fd5b506106fe60048036038101906106f99190614aef565b6118e8565b60405161070b9190615493565b60405180910390f35b34801561072057600080fd5b5061073b600480360381019061073691906147c7565b61199a565b604051610748919061553e565b60405180910390f35b34801561075d57600080fd5b506107666119f0565b60405161077391906154fa565b60405180910390f35b34801561078857600080fd5b506107a3600480360381019061079e91906147c7565b611adb565b005b3480156107b157600080fd5b506107cc60048036038101906107c791906147c7565b611c83565b6040516107d9919061583b565b60405180910390f35b3480156107ee57600080fd5b506107f7611d3b565b005b34801561080557600080fd5b50610820600480360381019061081b91906147c7565b611e78565b005b34801561082e57600080fd5b50610849600480360381019061084491906147c7565b612183565b005b34801561085757600080fd5b50610872600480360381019061086d91906147c7565b61243a565b60405161087f919061551c565b60405180910390f35b6108a2600480360381019061089d9190614a7a565b6125b6565b6040516108af919061583b565b60405180910390f35b3480156108c457600080fd5b506108cd61282f565b6040516108da9190615493565b60405180910390f35b3480156108ef57600080fd5b506108f8612859565b6040516109059190615559565b60405180910390f35b34801561091a57600080fd5b506109236128eb565b60405161093091906154fa565b60405180910390f35b34801561094557600080fd5b50610960600480360381019061095b91906147c7565b6129d6565b60405161096d919061583b565b60405180910390f35b34801561098257600080fd5b5061099d600480360381019061099891906148f6565b6129ee565b005b3480156109ab57600080fd5b506109b4612b6f565b6040516109c1919061583b565b60405180910390f35b6109e460048036038101906109df91906149b3565b612b7e565b005b3480156109f257600080fd5b506109fb612d80565b604051610a08919061583b565b60405180910390f35b348015610a1d57600080fd5b50610a386004803603810190610a33919061496e565b612d8f565b005b348015610a4657600080fd5b50610a616004803603810190610a5c919061487b565b612f67565b005b348015610a6f57600080fd5b50610a78612fc9565b604051610a85919061583b565b60405180910390f35b348015610a9a57600080fd5b50610aa3612fcf565b604051610ab0919061583b565b60405180910390f35b348015610ac557600080fd5b50610ace612fd5565b604051610adb9190615493565b60405180910390f35b348015610af057600080fd5b50610b0b6004803603810190610b069190614aef565b613043565b604051610b189190615559565b60405180910390f35b348015610b2d57600080fd5b50610b36613130565b604051610b4391906154fa565b60405180910390f35b348015610b5857600080fd5b50610b736004803603810190610b6e9190614aef565b61321b565b005b348015610b8157600080fd5b50610b9c6004803603810190610b9791906147f0565b613282565b604051610ba9919061553e565b60405180910390f35b348015610bbe57600080fd5b50610bc7613316565b005b348015610bd557600080fd5b50610bf06004803603810190610beb91906147c7565b6133de565b005b60011515600b60003373ffffffffffffffffffffffffffffffffffffffff1673ffffffffffffffffffffffffffffffffffffffff16815260200190815260200160002060009054906101000a900460ff16151514610c4f57600080fd5b80601b8190555050565b60007f780e9d63000000000000000000000000000000000000000000000000000000007bffffffffffffffffffffffffffffffffffffffffffffffffffffffff1916827bffffffffffffffffffffffffffffffffffffffffffffffffffffffff19161480610ccc5750610ccb8261358a565b5b9050919050565b606060008054610ce290615b5d565b80601f0160208091040260200160405190810160405280929190818152602001828054610d0e90615b5d565b8015610d5b5780601f10610d3057610100808354040283529160200191610d5b565b820191906000526020600020905b815481529060010190602001808311610d3e57829003601f168201915b5050505050905090565b6000610d708261366c565b610daf576040517f08c379a0000000000000000000000000000000000000000000000000000000008152600401610da6906156fb565b60405180910390fd5b6004600083815260200190815260200160002060009054906101000a900473ffffffffffffffffffffffffffffffffffffffff169050919050565b6000610df5826118e8565b90508073ffffffffffffffffffffffffffffffffffffffff168373ffffffffffffffffffffffffffffffffffffffff161415610e66576040517f08c379a0000000000000000000000000000000000000000000000000000000008152600401610e5d9061577b565b60405180910390fd5b8073ffffffffffffffffffffffffffffffffffffffff16610e856136d8565b73ffffffffffffffffffffffffffffffffffffffff161480610eb45750610eb381610eae6136d8565b613282565b5b610ef3576040517f08c379a0000000000000000000000000000000000000000000000000000000008152600401610eea9061567b565b60405180910390fd5b610efd83836136e0565b505050565b60011515600b60003373ffffffffffffffffffffffffffffffffffffffff1673ffffffffffffffffffffffffffffffffffffffff16815260200190815260200160002060009054906101000a900460ff16151514610f5f57600080fd5b600e819080600181540180825580915050600190039060005260206000200160009091909190916101000a81548173ffffffffffffffffffffffffffffffffffffffff021916908373ffffffffffffffffffffffffffffffffffffffff16021790555050565b60136020528060005260406000206000915090508054610fe490615b5d565b80601f016020809104026020016040519081016040528092919081815260200182805461101090615b5d565b801561105d5780601f106110325761010080835404028352916020019161105d565b820191906000526020600020905b81548152906001019060200180831161104057829003601f168201915b505050505081565b600080601460003373ffffffffffffffffffffffffffffffffffffffff1673ffffffffffffffffffffffffffffffffffffffff1681526020019081526020016000205490508091505090565b6000600880549050905090565b6000806110cb600c613799565b90508091505090565b6110e56110df6136d8565b826137a7565b611124576040517f08c379a000000000000000000000000000000000000000000000000000000000815260040161111b9061579b565b60405180910390fd5b61112f838383613885565b505050565b60011515600b60003373ffffffffffffffffffffffffffffffffffffffff1673ffffffffffffffffffffffffffffffffffffffff16815260200190815260200160002060009054906101000a900460ff1615151461119157600080fd5b60005b828290508110156114fb576000600f60008585858181106111de577f4e487b7100000000000000000000000000000000000000000000000000000000600052603260045260246000fd5b90506020020160208101906111f391906147c7565b73ffffffffffffffffffffffffffffffffffffffff1673ffffffffffffffffffffffffffffffffffffffff16815260200190815260200160002060006101000a81548160ff021916908315150217905550600080600090505b60108054905081101561135957848484818110611292577f4e487b7100000000000000000000000000000000000000000000000000000000600052603260045260246000fd5b90506020020160208101906112a791906147c7565b73ffffffffffffffffffffffffffffffffffffffff16601082815481106112f7577f4e487b7100000000000000000000000000000000000000000000000000000000600052603260045260246000fd5b9060005260206000200160009054906101000a900473ffffffffffffffffffffffffffffffffffffffff1673ffffffffffffffffffffffffffffffffffffffff16141561134657809150611359565b808061135190615b8f565b91505061124c565b505b600160108054905061136d9190615a73565b81101561147a57601060018261138391906159c3565b815481106113ba577f4e487b7100000000000000000000000000000000000000000000000000000000600052603260045260246000fd5b9060005260206000200160009054906101000a900473ffffffffffffffffffffffffffffffffffffffff166010828154811061141f577f4e487b7100000000000000000000000000000000000000000000000000000000600052603260045260246000fd5b9060005260206000200160006101000a81548173ffffffffffffffffffffffffffffffffffffffff021916908373ffffffffffffffffffffffffffffffffffffffff160217905550808061147290615b8f565b91505061135b565b60108054806114b2577f4e487b7100000000000000000000000000000000000000000000000000000000600052603160045260246000fd5b6001900381819060005260206000200160006101000a81549073ffffffffffffffffffffffffffffffffffffffff021916905590555080806114f390615b8f565b915050611194565b505050565b600061150b83611c83565b821061154c576040517f08c379a00000000000000000000000000000000000000000000000000000000081526004016115439061557b565b60405180910390fd5b600660008473ffffffffffffffffffffffffffffffffffffffff1673ffffffffffffffffffffffffffffffffffffffff168152602001908152602001600020600083815260200190815260200160002054905092915050565b60011515600b60003373ffffffffffffffffffffffffffffffffffffffff1673ffffffffffffffffffffffffffffffffffffffff16815260200190815260200160002060009054906101000a900460ff1615151461160257600080fd5b60001515601960009054906101000a900460ff1615151461162257600080fd5b600082829050905060005b8181101561175b5761163f600c613895565b600061164b600c613799565b905061165733826138ab565b868683818110611690577f4e487b7100000000000000000000000000000000000000000000000000000000600052603260045260246000fd5b90506020028101906116a29190615856565b6011600084815260200190815260200160002091906116c29291906144e8565b508484838181106116fc577f4e487b7100000000000000000000000000000000000000000000000000000000600052603260045260246000fd5b905060200281019061170e9190615856565b60126000848152602001908152602001600020919061172e9291906144e8565b50601a600081548092919061174290615b8f565b919050555050808061175390615b8f565b91505061162d565b506007601a541415611783576001601960006101000a81548160ff0219169083151502179055505b5050505050565b6117a583838360405180602001604052806000815250612f67565b505050565b6000601960009054906101000a900460ff16905090565b6000601654905090565b601960009054906101000a900460ff1681565b60006117e86110b1565b8210611829576040517f08c379a0000000000000000000000000000000000000000000000000000000008152600401611820906157bb565b60405180910390fd5b60088281548110611863577f4e487b7100000000000000000000000000000000000000000000000000000000600052603260045260246000fd5b90600052602060002001549050919050565b60185481565b60155481565b60011515600b60003373ffffffffffffffffffffffffffffffffffffffff1673ffffffffffffffffffffffffffffffffffffffff16815260200190815260200160002060009054906101000a900460ff161515146118de57600080fd5b8060158190555050565b6000806002600084815260200190815260200160002060009054906101000a900473ffffffffffffffffffffffffffffffffffffffff169050600073ffffffffffffffffffffffffffffffffffffffff168173ffffffffffffffffffffffffffffffffffffffff161415611991576040517f08c379a0000000000000000000000000000000000000000000000000000000008152600401611988906156bb565b60405180910390fd5b80915050919050565b6000600f60008373ffffffffffffffffffffffffffffffffffffffff1673ffffffffffffffffffffffffffffffffffffffff16815260200190815260200160002060009054906101000a900460ff169050919050565b606060011515600b60003373ffffffffffffffffffffffffffffffffffffffff1673ffffffffffffffffffffffffffffffffffffffff16815260200190815260200160002060009054906101000a900460ff16151514611a4f57600080fd5b600d805480602002602001604051908101604052809291908181526020018280548015611ad157602002820191906000526020600020905b8160009054906101000a900473ffffffffffffffffffffffffffffffffffffffff1673ffffffffffffffffffffffffffffffffffffffff1681526020019060010190808311611a87575b5050505050905090565b60011515600b60003373ffffffffffffffffffffffffffffffffffffffff1673ffffffffffffffffffffffffffffffffffffffff16815260200190815260200160002060009054906101000a900460ff16151514611b3857600080fd5b600b60008273ffffffffffffffffffffffffffffffffffffffff1673ffffffffffffffffffffffffffffffffffffffff16815260200190815260200160002060009054906101000a900460ff1615611bc5576040517f08c379a0000000000000000000000000000000000000000000000000000000008152600401611bbc906157db565b60405180910390fd5b6001600b60008373ffffffffffffffffffffffffffffffffffffffff1673ffffffffffffffffffffffffffffffffffffffff16815260200190815260200160002060006101000a81548160ff021916908315150217905550600d819080600181540180825580915050600190039060005260206000200160009091909190916101000a81548173ffffffffffffffffffffffffffffffffffffffff021916908373ffffffffffffffffffffffffffffffffffffffff16021790555050565b60008073ffffffffffffffffffffffffffffffffffffffff168273ffffffffffffffffffffffffffffffffffffffff161415611cf4576040517f08c379a0000000000000000000000000000000000000000000000000000000008152600401611ceb9061569b565b60405180910390fd5b600360008373ffffffffffffffffffffffffffffffffffffffff1673ffffffffffffffffffffffffffffffffffffffff168152602001908152602001600020549050919050565b611d436136d8565b73ffffffffffffffffffffffffffffffffffffffff16611d6161282f565b73ffffffffffffffffffffffffffffffffffffffff1614611db7576040517f08c379a0000000000000000000000000000000000000000000000000000000008152600401611dae9061571b565b60405180910390fd5b600073ffffffffffffffffffffffffffffffffffffffff16600a60009054906101000a900473ffffffffffffffffffffffffffffffffffffffff1673ffffffffffffffffffffffffffffffffffffffff167f8be0079c531659141344cd1fd0a4f28419497f9722a3daafe3b4186f6b6457e060405160405180910390a36000600a60006101000a81548173ffffffffffffffffffffffffffffffffffffffff021916908373ffffffffffffffffffffffffffffffffffffffff160217905550565b60011515600b60003373ffffffffffffffffffffffffffffffffffffffff1673ffffffffffffffffffffffffffffffffffffffff16815260200190815260200160002060009054906101000a900460ff16151514611ed557600080fd5b6000600b60008373ffffffffffffffffffffffffffffffffffffffff1673ffffffffffffffffffffffffffffffffffffffff16815260200190815260200160002060006101000a81548160ff021916908315150217905550600080600090505b600d80549050811015611ff1578273ffffffffffffffffffffffffffffffffffffffff16600d8281548110611f93577f4e487b7100000000000000000000000000000000000000000000000000000000600052603260045260246000fd5b9060005260206000200160009054906101000a900473ffffffffffffffffffffffffffffffffffffffff1673ffffffffffffffffffffffffffffffffffffffff161415611fde578091505b8080611fe990615b8f565b915050611f35565b505b6001600d805490506120059190615a73565b81101561211257600d60018261201b91906159c3565b81548110612052577f4e487b7100000000000000000000000000000000000000000000000000000000600052603260045260246000fd5b9060005260206000200160009054906101000a900473ffffffffffffffffffffffffffffffffffffffff16600d82815481106120b7577f4e487b7100000000000000000000000000000000000000000000000000000000600052603260045260246000fd5b9060005260206000200160006101000a81548173ffffffffffffffffffffffffffffffffffffffff021916908373ffffffffffffffffffffffffffffffffffffffff160217905550808061210a90615b8f565b915050611ff3565b600d80548061214a577f4e487b7100000000000000000000000000000000000000000000000000000000600052603160045260246000fd5b6001900381819060005260206000200160006101000a81549073ffffffffffffffffffffffffffffffffffffffff021916905590555050565b60011515600b60003373ffffffffffffffffffffffffffffffffffffffff1673ffffffffffffffffffffffffffffffffffffffff16815260200190815260200160002060009054906101000a900460ff161515146121e057600080fd5b600080600090505b600e805490508110156122a8578273ffffffffffffffffffffffffffffffffffffffff16600e8281548110612246577f4e487b7100000000000000000000000000000000000000000000000000000000600052603260045260246000fd5b9060005260206000200160009054906101000a900473ffffffffffffffffffffffffffffffffffffffff1673ffffffffffffffffffffffffffffffffffffffff161415612295578091506122a8565b80806122a090615b8f565b9150506121e8565b505b6001600e805490506122bc9190615a73565b8110156123c957600e6001826122d291906159c3565b81548110612309577f4e487b7100000000000000000000000000000000000000000000000000000000600052603260045260246000fd5b9060005260206000200160009054906101000a900473ffffffffffffffffffffffffffffffffffffffff16600e828154811061236e577f4e487b7100000000000000000000000000000000000000000000000000000000600052603260045260246000fd5b9060005260206000200160006101000a81548173ffffffffffffffffffffffffffffffffffffffff021916908373ffffffffffffffffffffffffffffffffffffffff16021790555080806123c190615b8f565b9150506122aa565b600e805480612401577f4e487b7100000000000000000000000000000000000000000000000000000000600052603160045260246000fd5b6001900381819060005260206000200160006101000a81549073ffffffffffffffffffffffffffffffffffffffff021916905590555050565b6060600061244783611c83565b905060008114156124ca57600067ffffffffffffffff811115612493577f4e487b7100000000000000000000000000000000000000000000000000000000600052604160045260246000fd5b6040519080825280602002602001820160405280156124c15781602001602082028036833780820191505090505b509150506125b1565b60008167ffffffffffffffff81111561250c577f4e487b7100000000000000000000000000000000000000000000000000000000600052604160045260246000fd5b60405190808252806020026020018201604052801561253a5781602001602082028036833780820191505090505b50905060005b828110156125aa576125528582611500565b82828151811061258b577f4e487b7100000000000000000000000000000000000000000000000000000000600052603260045260246000fd5b60200260200101818152505080806125a290615b8f565b915050612540565b8193505050505b919050565b6000601b543410156125fd576040517f08c379a00000000000000000000000000000000000000000000000000000000081526004016125f49061581b565b60405180910390fd5b601554601460003373ffffffffffffffffffffffffffffffffffffffff1673ffffffffffffffffffffffffffffffffffffffff168152602001908152602001600020541115612681576040517f08c379a0000000000000000000000000000000000000000000000000000000008152600401612678906157fb565b60405180910390fd5b61268b600c613895565b6000612697600c613799565b90506126a333826138ab565b85856011600084815260200190815260200160002091906126c59291906144e8565b5083836012600084815260200190815260200160002091906126e89291906144e8565b5085856040516126f992919061547a565b60405180910390203373ffffffffffffffffffffffffffffffffffffffff167f012c954ad7e2d41fc8be7c0932cdb21a00389080ddd69f5801d6ab20de476df783604051612747919061583b565b60405180910390a3612757613a79565b600e80549050600160185461276c91906159c3565b6127769190615bd8565b601881905550600e601854815481106127b8577f4e487b7100000000000000000000000000000000000000000000000000000000600052603260045260246000fd5b9060005260206000200160009054906101000a900473ffffffffffffffffffffffffffffffffffffffff16601760006101000a81548173ffffffffffffffffffffffffffffffffffffffff021916908373ffffffffffffffffffffffffffffffffffffffff16021790555080915050949350505050565b6000600a60009054906101000a900473ffffffffffffffffffffffffffffffffffffffff16905090565b60606001805461286890615b5d565b80601f016020809104026020016040519081016040528092919081815260200182805461289490615b5d565b80156128e15780601f106128b6576101008083540402835291602001916128e1565b820191906000526020600020905b8154815290600101906020018083116128c457829003601f168201915b5050505050905090565b606060011515600b60003373ffffffffffffffffffffffffffffffffffffffff1673ffffffffffffffffffffffffffffffffffffffff16815260200190815260200160002060009054906101000a900460ff1615151461294a57600080fd5b60108054806020026020016040519081016040528092919081815260200182805480156129cc57602002820191906000526020600020905b8160009054906101000a900473ffffffffffffffffffffffffffffffffffffffff1673ffffffffffffffffffffffffffffffffffffffff1681526020019060010190808311612982575b5050505050905090565b60146020528060005260406000206000915090505481565b6129f66136d8565b73ffffffffffffffffffffffffffffffffffffffff168273ffffffffffffffffffffffffffffffffffffffff161415612a64576040517f08c379a0000000000000000000000000000000000000000000000000000000008152600401612a5b9061563b565b60405180910390fd5b8060056000612a716136d8565b73ffffffffffffffffffffffffffffffffffffffff1673ffffffffffffffffffffffffffffffffffffffff16815260200190815260200160002060008473ffffffffffffffffffffffffffffffffffffffff1673ffffffffffffffffffffffffffffffffffffffff16815260200190815260200160002060006101000a81548160ff0219169083151502179055508173ffffffffffffffffffffffffffffffffffffffff16612b1e6136d8565b73ffffffffffffffffffffffffffffffffffffffff167f17307eab39ab6107e8899845ad3d59bd9653f200f220920489ca2b5937696c3183604051612b63919061553e565b60405180910390a35050565b600080601b5490508091505090565b600082829050905080601b54612b949190615a19565b341015612bd6576040517f08c379a0000000000000000000000000000000000000000000000000000000008152600401612bcd9061581b565b60405180910390fd5b60155481601460003373ffffffffffffffffffffffffffffffffffffffff1673ffffffffffffffffffffffffffffffffffffffff16815260200190815260200160002054612c2491906159c3565b1115612c65576040517f08c379a0000000000000000000000000000000000000000000000000000000008152600401612c5c906155fb565b60405180910390fd5b80601460003373ffffffffffffffffffffffffffffffffffffffff1673ffffffffffffffffffffffffffffffffffffffff1681526020019081526020016000206000828254612cb491906159c3565b9250508190555060005b81811015612d7857612d64868683818110612d02577f4e487b7100000000000000000000000000000000000000000000000000000000600052603260045260246000fd5b9050602002810190612d149190615856565b868685818110612d4d577f4e487b7100000000000000000000000000000000000000000000000000000000600052603260045260246000fd5b9050602002810190612d5f9190615856565b6125b6565b508080612d7090615b8f565b915050612cbe565b505050505050565b60008060155490508091505090565b60011515600b60003373ffffffffffffffffffffffffffffffffffffffff1673ffffffffffffffffffffffffffffffffffffffff16815260200190815260200160002060009054906101000a900460ff16151514612dec57600080fd5b60005b82829050811015612f62576001600f6000858585818110612e39577f4e487b7100000000000000000000000000000000000000000000000000000000600052603260045260246000fd5b9050602002016020810190612e4e91906147c7565b73ffffffffffffffffffffffffffffffffffffffff1673ffffffffffffffffffffffffffffffffffffffff16815260200190815260200160002060006101000a81548160ff0219169083151502179055506010838383818110612eda577f4e487b7100000000000000000000000000000000000000000000000000000000600052603260045260246000fd5b9050602002016020810190612eef91906147c7565b9080600181540180825580915050600190039060005260206000200160009091909190916101000a81548173ffffffffffffffffffffffffffffffffffffffff021916908373ffffffffffffffffffffffffffffffffffffffff1602179055508080612f5a90615b8f565b915050612def565b505050565b612f78612f726136d8565b836137a7565b612fb7576040517f08c379a0000000000000000000000000000000000000000000000000000000008152600401612fae9061579b565b60405180910390fd5b612fc384848484613b8b565b50505050565b60165481565b601b5481565b6000600e60185481548110613013577f4e487b7100000000000000000000000000000000000000000000000000000000600052603260045260246000fd5b9060005260206000200160009054906101000a900473ffffffffffffffffffffffffffffffffffffffff16905090565b606061304e8261366c565b61308d576040517f08c379a00000000000000000000000000000000000000000000000000000000081526004016130849061575b565b60405180910390fd5b6011600083815260200190815260200160002080546130ab90615b5d565b80601f01602080910402602001604051908101604052809291908181526020018280546130d790615b5d565b80156131245780601f106130f957610100808354040283529160200191613124565b820191906000526020600020905b81548152906001019060200180831161310757829003601f168201915b50505050509050919050565b606060011515600b60003373ffffffffffffffffffffffffffffffffffffffff1673ffffffffffffffffffffffffffffffffffffffff16815260200190815260200160002060009054906101000a900460ff1615151461318f57600080fd5b600e80548060200260200160405190810160405280929190818152602001828054801561321157602002820191906000526020600020905b8160009054906101000a900473ffffffffffffffffffffffffffffffffffffffff1673ffffffffffffffffffffffffffffffffffffffff16815260200190600101908083116131c7575b5050505050905090565b60011515600b60003373ffffffffffffffffffffffffffffffffffffffff1673ffffffffffffffffffffffffffffffffffffffff16815260200190815260200160002060009054906101000a900460ff1615151461327857600080fd5b8060168190555050565b6000600560008473ffffffffffffffffffffffffffffffffffffffff1673ffffffffffffffffffffffffffffffffffffffff16815260200190815260200160002060008373ffffffffffffffffffffffffffffffffffffffff1673ffffffffffffffffffffffffffffffffffffffff16815260200190815260200160002060009054906101000a900460ff16905092915050565b60011515600b60003373ffffffffffffffffffffffffffffffffffffffff1673ffffffffffffffffffffffffffffffffffffffff16815260200190815260200160002060009054906101000a900460ff1615151461337357600080fd5b6000600190505b613384600c613799565b81116133db5760126000828152602001908152602001600020601160008381526020019081526020016000209080546133bc90615b5d565b6133c792919061456e565b5080806133d390615b8f565b91505061337a565b50565b6133e66136d8565b73ffffffffffffffffffffffffffffffffffffffff1661340461282f565b73ffffffffffffffffffffffffffffffffffffffff161461345a576040517f08c379a00000000000000000000000000000000000000000000000000000000081526004016134519061571b565b60405180910390fd5b600073ffffffffffffffffffffffffffffffffffffffff168173ffffffffffffffffffffffffffffffffffffffff1614156134ca576040517f08c379a00000000000000000000000000000000000000000000000000000000081526004016134c1906155bb565b60405180910390fd5b8073ffffffffffffffffffffffffffffffffffffffff16600a60009054906101000a900473ffffffffffffffffffffffffffffffffffffffff1673ffffffffffffffffffffffffffffffffffffffff167f8be0079c531659141344cd1fd0a4f28419497f9722a3daafe3b4186f6b6457e060405160405180910390a380600a60006101000a81548173ffffffffffffffffffffffffffffffffffffffff021916908373ffffffffffffffffffffffffffffffffffffffff16021790555050565b60007f80ac58cd000000000000000000000000000000000000000000000000000000007bffffffffffffffffffffffffffffffffffffffffffffffffffffffff1916827bffffffffffffffffffffffffffffffffffffffffffffffffffffffff1916148061365557507f5b5e139f000000000000000000000000000000000000000000000000000000007bffffffffffffffffffffffffffffffffffffffffffffffffffffffff1916827bffffffffffffffffffffffffffffffffffffffffffffffffffffffff1916145b80613665575061366482613be7565b5b9050919050565b60008073ffffffffffffffffffffffffffffffffffffffff166002600084815260200190815260200160002060009054906101000a900473ffffffffffffffffffffffffffffffffffffffff1673ffffffffffffffffffffffffffffffffffffffff1614159050919050565b600033905090565b816004600083815260200190815260200160002060006101000a81548173ffffffffffffffffffffffffffffffffffffffff021916908373ffffffffffffffffffffffffffffffffffffffff160217905550808273ffffffffffffffffffffffffffffffffffffffff16613753836118e8565b73ffffffffffffffffffffffffffffffffffffffff167f8c5be1e5ebec7d5bd14f71427d1e84f3dd0314c0f7b2291e5b200ac8c7c3b92560405160405180910390a45050565b600081600001549050919050565b60006137b28261366c565b6137f1576040517f08c379a00000000000000000000000000000000000000000000000000000000081526004016137e89061565b565b60405180910390fd5b60006137fc836118e8565b90508073ffffffffffffffffffffffffffffffffffffffff168473ffffffffffffffffffffffffffffffffffffffff16148061386b57508373ffffffffffffffffffffffffffffffffffffffff1661385384610d65565b73ffffffffffffffffffffffffffffffffffffffff16145b8061387c575061387b8185613282565b5b91505092915050565b613890838383613c51565b505050565b6001816000016000828254019250508190555050565b600073ffffffffffffffffffffffffffffffffffffffff168273ffffffffffffffffffffffffffffffffffffffff16141561391b576040517f08c379a0000000000000000000000000000000000000000000000000000000008152600401613912906156db565b60405180910390fd5b6139248161366c565b15613964576040517f08c379a000000000000000000000000000000000000000000000000000000000815260040161395b906155db565b60405180910390fd5b61397060008383613ead565b6001600360008473ffffffffffffffffffffffffffffffffffffffff1673ffffffffffffffffffffffffffffffffffffffff16815260200190815260200160002060008282546139c091906159c3565b92505081905550816002600083815260200190815260200160002060006101000a81548173ffffffffffffffffffffffffffffffffffffffff021916908373ffffffffffffffffffffffffffffffffffffffff160217905550808273ffffffffffffffffffffffffffffffffffffffff16600073ffffffffffffffffffffffffffffffffffffffff167fddf252ad1be2c89b69c2b068fc378daa952ba7f163c4a11628f55a4df523b3ef60405160405180910390a45050565b601760009054906101000a900473ffffffffffffffffffffffffffffffffffffffff1673ffffffffffffffffffffffffffffffffffffffff166108fc479081150290604051600060405180830381858888f19350505050158015613ae1573d6000803e3d6000fd5b50600e60185481548110613b1e577f4e487b7100000000000000000000000000000000000000000000000000000000600052603260045260246000fd5b9060005260206000200160009054906101000a900473ffffffffffffffffffffffffffffffffffffffff16601760006101000a81548173ffffffffffffffffffffffffffffffffffffffff021916908373ffffffffffffffffffffffffffffffffffffffff160217905550565b613b96848484613885565b613ba284848484613fc1565b613be1576040517f08c379a0000000000000000000000000000000000000000000000000000000008152600401613bd89061559b565b60405180910390fd5b50505050565b60007f01ffc9a7000000000000000000000000000000000000000000000000000000007bffffffffffffffffffffffffffffffffffffffffffffffffffffffff1916827bffffffffffffffffffffffffffffffffffffffffffffffffffffffff1916149050919050565b8273ffffffffffffffffffffffffffffffffffffffff16613c71826118e8565b73ffffffffffffffffffffffffffffffffffffffff1614613cc7576040517f08c379a0000000000000000000000000000000000000000000000000000000008152600401613cbe9061573b565b60405180910390fd5b600073ffffffffffffffffffffffffffffffffffffffff168273ffffffffffffffffffffffffffffffffffffffff161415613d37576040517f08c379a0000000000000000000000000000000000000000000000000000000008152600401613d2e9061561b565b60405180910390fd5b613d42838383613ead565b613d4d6000826136e0565b6001600360008573ffffffffffffffffffffffffffffffffffffffff1673ffffffffffffffffffffffffffffffffffffffff1681526020019081526020016000206000828254613d9d9190615a73565b925050819055506001600360008473ffffffffffffffffffffffffffffffffffffffff1673ffffffffffffffffffffffffffffffffffffffff1681526020019081526020016000206000828254613df491906159c3565b92505081905550816002600083815260200190815260200160002060006101000a81548173ffffffffffffffffffffffffffffffffffffffff021916908373ffffffffffffffffffffffffffffffffffffffff160217905550808273ffffffffffffffffffffffffffffffffffffffff168473ffffffffffffffffffffffffffffffffffffffff167fddf252ad1be2c89b69c2b068fc378daa952ba7f163c4a11628f55a4df523b3ef60405160405180910390a4505050565b613eb8838383614158565b600073ffffffffffffffffffffffffffffffffffffffff168373ffffffffffffffffffffffffffffffffffffffff161415613efb57613ef68161415d565b613f3a565b8173ffffffffffffffffffffffffffffffffffffffff168373ffffffffffffffffffffffffffffffffffffffff1614613f3957613f3883826141a6565b5b5b600073ffffffffffffffffffffffffffffffffffffffff168273ffffffffffffffffffffffffffffffffffffffff161415613f7d57613f7881614313565b613fbc565b8273ffffffffffffffffffffffffffffffffffffffff168273ffffffffffffffffffffffffffffffffffffffff1614613fbb57613fba8282614456565b5b5b505050565b6000613fe28473ffffffffffffffffffffffffffffffffffffffff166144d5565b1561414b578373ffffffffffffffffffffffffffffffffffffffff1663150b7a0261400b6136d8565b8786866040518563ffffffff1660e01b815260040161402d94939291906154ae565b602060405180830381600087803b15801561404757600080fd5b505af192505050801561407857506040513d601f19601f820116820180604052508101906140759190614a51565b60015b6140fb573d80600081146140a8576040519150601f19603f3d011682016040523d82523d6000602084013e6140ad565b606091505b506000815114156140f3576040517f08c379a00000000000000000000000000000000000000000000000000000000081526004016140ea9061559b565b60405180910390fd5b805181602001fd5b63150b7a0260e01b7bffffffffffffffffffffffffffffffffffffffffffffffffffffffff1916817bffffffffffffffffffffffffffffffffffffffffffffffffffffffff191614915050614150565b600190505b949350505050565b505050565b6008805490506009600083815260200190815260200160002081905550600881908060018154018082558091505060019003906000526020600020016000909190919091505550565b600060016141b384611c83565b6141bd9190615a73565b90506000600760008481526020019081526020016000205490508181146142a2576000600660008673ffffffffffffffffffffffffffffffffffffffff1673ffffffffffffffffffffffffffffffffffffffff168152602001908152602001600020600084815260200190815260200160002054905080600660008773ffffffffffffffffffffffffffffffffffffffff1673ffffffffffffffffffffffffffffffffffffffff168152602001908152602001600020600084815260200190815260200160002081905550816007600083815260200190815260200160002081905550505b6007600084815260200190815260200160002060009055600660008573ffffffffffffffffffffffffffffffffffffffff1673ffffffffffffffffffffffffffffffffffffffff16815260200190815260200160002060008381526020019081526020016000206000905550505050565b600060016008805490506143279190615a73565b905060006009600084815260200190815260200160002054905060006008838154811061437d577f4e487b7100000000000000000000000000000000000000000000000000000000600052603260045260246000fd5b9060005260206000200154905080600883815481106143c5577f4e487b7100000000000000000000000000000000000000000000000000000000600052603260045260246000fd5b90600052602060002001819055508160096000838152602001908152602001600020819055506009600085815260200190815260200160002060009055600880548061443a577f4e487b7100000000000000000000000000000000000000000000000000000000600052603160045260246000fd5b6001900381819060005260206000200160009055905550505050565b600061446183611c83565b905081600660008573ffffffffffffffffffffffffffffffffffffffff1673ffffffffffffffffffffffffffffffffffffffff168152602001908152602001600020600083815260200190815260200160002081905550806007600084815260200190815260200160002081905550505050565b600080823b905060008111915050919050565b8280546144f490615b5d565b90600052602060002090601f016020900481019282614516576000855561455d565b82601f1061452f57803560ff191683800117855561455d565b8280016001018555821561455d579182015b8281111561455c578235825591602001919060010190614541565b5b50905061456a91906145fb565b5090565b82805461457a90615b5d565b90600052602060002090601f01602090048101928261459c57600085556145ea565b82601f106145ad57805485556145ea565b828001600101855582156145ea57600052602060002091601f016020900482015b828111156145e95782548255916001019190600101906145ce565b5b5090506145f791906145fb565b5090565b5b808211156146145760008160009055506001016145fc565b5090565b600061462b614626846158de565b6158ad565b90508281526020810184848401111561464357600080fd5b61464e848285615b1b565b509392505050565b60008135905061466581615cd6565b92915050565b60008083601f84011261467d57600080fd5b8235905067ffffffffffffffff81111561469657600080fd5b6020830191508360208202830111156146ae57600080fd5b9250929050565b60008083601f8401126146c757600080fd5b8235905067ffffffffffffffff8111156146e057600080fd5b6020830191508360208202830111156146f857600080fd5b9250929050565b60008135905061470e81615ced565b92915050565b60008135905061472381615d04565b92915050565b60008151905061473881615d04565b92915050565b600082601f83011261474f57600080fd5b813561475f848260208601614618565b91505092915050565b60008083601f84011261477a57600080fd5b8235905067ffffffffffffffff81111561479357600080fd5b6020830191508360018202830111156147ab57600080fd5b9250929050565b6000813590506147c181615d1b565b92915050565b6000602082840312156147d957600080fd5b60006147e784828501614656565b91505092915050565b6000806040838503121561480357600080fd5b600061481185828601614656565b925050602061482285828601614656565b9150509250929050565b60008060006060848603121561484157600080fd5b600061484f86828701614656565b935050602061486086828701614656565b9250506040614871868287016147b2565b9150509250925092565b6000806000806080858703121561489157600080fd5b600061489f87828801614656565b94505060206148b087828801614656565b93505060406148c1878288016147b2565b925050606085013567ffffffffffffffff8111156148de57600080fd5b6148ea8782880161473e565b91505092959194509250565b6000806040838503121561490957600080fd5b600061491785828601614656565b9250506020614928858286016146ff565b9150509250929050565b6000806040838503121561494557600080fd5b600061495385828601614656565b9250506020614964858286016147b2565b9150509250929050565b6000806020838503121561498157600080fd5b600083013567ffffffffffffffff81111561499b57600080fd5b6149a78582860161466b565b92509250509250929050565b600080600080604085870312156149c957600080fd5b600085013567ffffffffffffffff8111156149e357600080fd5b6149ef878288016146b5565b9450945050602085013567ffffffffffffffff811115614a0e57600080fd5b614a1a878288016146b5565b925092505092959194509250565b600060208284031215614a3a57600080fd5b6000614a4884828501614714565b91505092915050565b600060208284031215614a6357600080fd5b6000614a7184828501614729565b91505092915050565b60008060008060408587031215614a9057600080fd5b600085013567ffffffffffffffff811115614aaa57600080fd5b614ab687828801614768565b9450945050602085013567ffffffffffffffff811115614ad557600080fd5b614ae187828801614768565b925092505092959194509250565b600060208284031215614b0157600080fd5b6000614b0f848285016147b2565b91505092915050565b6000614b248383614b48565b60208301905092915050565b6000614b3c838361545c565b60208301905092915050565b614b5181615aa7565b82525050565b614b6081615aa7565b82525050565b6000614b718261592e565b614b7b8185615974565b9350614b868361590e565b8060005b83811015614bb7578151614b9e8882614b18565b9750614ba98361595a565b925050600181019050614b8a565b5085935050505092915050565b6000614bcf82615939565b614bd98185615985565b9350614be48361591e565b8060005b83811015614c15578151614bfc8882614b30565b9750614c0783615967565b925050600181019050614be8565b5085935050505092915050565b614c2b81615ab9565b82525050565b6000614c3c82615944565b614c468185615996565b9350614c56818560208601615b2a565b614c5f81615cc5565b840191505092915050565b6000614c7683856159b8565b9350614c83838584615b1b565b82840190509392505050565b6000614c9a8261594f565b614ca481856159a7565b9350614cb4818560208601615b2a565b614cbd81615cc5565b840191505092915050565b6000614cd5602b836159a7565b91507f455243373231456e756d657261626c653a206f776e657220696e646578206f7560008301527f74206f6620626f756e64730000000000000000000000000000000000000000006020830152604082019050919050565b6000614d3b6032836159a7565b91507f4552433732313a207472616e7366657220746f206e6f6e20455243373231526560008301527f63656976657220696d706c656d656e74657200000000000000000000000000006020830152604082019050919050565b6000614da16026836159a7565b91507f4f776e61626c653a206e6577206f776e657220697320746865207a65726f206160008301527f64647265737300000000000000000000000000000000000000000000000000006020830152604082019050919050565b6000614e07601c836159a7565b91507f4552433732313a20746f6b656e20616c7265616479206d696e746564000000006000830152602082019050919050565b6000614e476016836159a7565b91507f796f752063616e2774206d696e7420616e796d6f7265000000000000000000006000830152602082019050919050565b6000614e876024836159a7565b91507f4552433732313a207472616e7366657220746f20746865207a65726f2061646460008301527f72657373000000000000000000000000000000000000000000000000000000006020830152604082019050919050565b6000614eed6019836159a7565b91507f4552433732313a20617070726f766520746f2063616c6c6572000000000000006000830152602082019050919050565b6000614f2d602c836159a7565b91507f4552433732313a206f70657261746f7220717565727920666f72206e6f6e657860008301527f697374656e7420746f6b656e00000000000000000000000000000000000000006020830152604082019050919050565b6000614f936038836159a7565b91507f4552433732313a20617070726f76652063616c6c6572206973206e6f74206f7760008301527f6e6572206e6f7220617070726f76656420666f7220616c6c00000000000000006020830152604082019050919050565b6000614ff9602a836159a7565b91507f4552433732313a2062616c616e636520717565727920666f7220746865207a6560008301527f726f2061646472657373000000000000000000000000000000000000000000006020830152604082019050919050565b600061505f6029836159a7565b91507f4552433732313a206f776e657220717565727920666f72206e6f6e657869737460008301527f656e7420746f6b656e00000000000000000000000000000000000000000000006020830152604082019050919050565b60006150c56020836159a7565b91507f4552433732313a206d696e7420746f20746865207a65726f20616464726573736000830152602082019050919050565b6000615105602c836159a7565b91507f4552433732313a20617070726f76656420717565727920666f72206e6f6e657860008301527f697374656e7420746f6b656e00000000000000000000000000000000000000006020830152604082019050919050565b600061516b6020836159a7565b91507f4f776e61626c653a2063616c6c6572206973206e6f7420746865206f776e65726000830152602082019050919050565b60006151ab6029836159a7565b91507f4552433732313a207472616e73666572206f6620746f6b656e2074686174206960008301527f73206e6f74206f776e00000000000000000000000000000000000000000000006020830152604082019050919050565b6000615211602f836159a7565b91507f4552433732314d657461646174613a2055524920717565727920666f72206e6f60008301527f6e6578697374656e7420746f6b656e00000000000000000000000000000000006020830152604082019050919050565b60006152776021836159a7565b91507f4552433732313a20617070726f76616c20746f2063757272656e74206f776e6560008301527f72000000000000000000000000000000000000000000000000000000000000006020830152604082019050919050565b60006152dd6031836159a7565b91507f4552433732313a207472616e736665722063616c6c6572206973206e6f74206f60008301527f776e6572206e6f7220617070726f7665640000000000000000000000000000006020830152604082019050919050565b6000615343602c836159a7565b91507f455243373231456e756d657261626c653a20676c6f62616c20696e646578206f60008301527f7574206f6620626f756e647300000000000000000000000000000000000000006020830152604082019050919050565b60006153a96009836159a7565b91507f6e6f742061646d696e00000000000000000000000000000000000000000000006000830152602082019050919050565b60006153e96017836159a7565b91507f596f752063616e2774206d696e7420616e796d6f72652e0000000000000000006000830152602082019050919050565b60006154296010836159a7565b91507f6e6f7420656e6f756768206574686572000000000000000000000000000000006000830152602082019050919050565b61546581615b11565b82525050565b61547481615b11565b82525050565b6000615487828486614c6a565b91508190509392505050565b60006020820190506154a86000830184614b57565b92915050565b60006080820190506154c36000830187614b57565b6154d06020830186614b57565b6154dd604083018561546b565b81810360608301526154ef8184614c31565b905095945050505050565b600060208201905081810360008301526155148184614b66565b905092915050565b600060208201905081810360008301526155368184614bc4565b905092915050565b60006020820190506155536000830184614c22565b92915050565b600060208201905081810360008301526155738184614c8f565b905092915050565b6000602082019050818103600083015261559481614cc8565b9050919050565b600060208201905081810360008301526155b481614d2e565b9050919050565b600060208201905081810360008301526155d481614d94565b9050919050565b600060208201905081810360008301526155f481614dfa565b9050919050565b6000602082019050818103600083015261561481614e3a565b9050919050565b6000602082019050818103600083015261563481614e7a565b9050919050565b6000602082019050818103600083015261565481614ee0565b9050919050565b6000602082019050818103600083015261567481614f20565b9050919050565b6000602082019050818103600083015261569481614f86565b9050919050565b600060208201905081810360008301526156b481614fec565b9050919050565b600060208201905081810360008301526156d481615052565b9050919050565b600060208201905081810360008301526156f4816150b8565b9050919050565b60006020820190508181036000830152615714816150f8565b9050919050565b600060208201905081810360008301526157348161515e565b9050919050565b600060208201905081810360008301526157548161519e565b9050919050565b6000602082019050818103600083015261577481615204565b9050919050565b600060208201905081810360008301526157948161526a565b9050919050565b600060208201905081810360008301526157b4816152d0565b9050919050565b600060208201905081810360008301526157d481615336565b9050919050565b600060208201905081810360008301526157f48161539c565b9050919050565b60006020820190508181036000830152615814816153dc565b9050919050565b600060208201905081810360008301526158348161541c565b9050919050565b6000602082019050615850600083018461546b565b92915050565b6000808335600160200384360303811261586f57600080fd5b80840192508235915067ffffffffffffffff82111561588d57600080fd5b6020830192506001820236038313156158a557600080fd5b509250929050565b6000604051905081810181811067ffffffffffffffff821117156158d4576158d3615c96565b5b8060405250919050565b600067ffffffffffffffff8211156158f9576158f8615c96565b5b601f19601f8301169050602081019050919050565b6000819050602082019050919050565b6000819050602082019050919050565b600081519050919050565b600081519050919050565b600081519050919050565b600081519050919050565b6000602082019050919050565b6000602082019050919050565b600082825260208201905092915050565b600082825260208201905092915050565b600082825260208201905092915050565b600082825260208201905092915050565b600081905092915050565b60006159ce82615b11565b91506159d983615b11565b9250827fffffffffffffffffffffffffffffffffffffffffffffffffffffffffffffffff03821115615a0e57615a0d615c09565b5b828201905092915050565b6000615a2482615b11565b9150615a2f83615b11565b9250817fffffffffffffffffffffffffffffffffffffffffffffffffffffffffffffffff0483118215151615615a6857615a67615c09565b5b828202905092915050565b6000615a7e82615b11565b9150615a8983615b11565b925082821015615a9c57615a9b615c09565b5b828203905092915050565b6000615ab282615af1565b9050919050565b60008115159050919050565b60007fffffffff0000000000000000000000000000000000000000000000000000000082169050919050565b600073ffffffffffffffffffffffffffffffffffffffff82169050919050565b6000819050919050565b82818337600083830152505050565b60005b83811015615b48578082015181840152602081019050615b2d565b83811115615b57576000848401525b50505050565b60006002820490506001821680615b7557607f821691505b60208210811415615b8957615b88615c67565b5b50919050565b6000615b9a82615b11565b91507fffffffffffffffffffffffffffffffffffffffffffffffffffffffffffffffff821415615bcd57615bcc615c09565b5b600182019050919050565b6000615be382615b11565b9150615bee83615b11565b925082615bfe57615bfd615c38565b5b828206905092915050565b7f4e487b7100000000000000000000000000000000000000000000000000000000600052601160045260246000fd5b7f4e487b7100000000000000000000000000000000000000000000000000000000600052601260045260246000fd5b7f4e487b7100000000000000000000000000000000000000000000000000000000600052602260045260246000fd5b7f4e487b7100000000000000000000000000000000000000000000000000000000600052604160045260246000fd5b6000601f19601f8301169050919050565b615cdf81615aa7565b8114615cea57600080fd5b50565b615cf681615ab9565b8114615d0157600080fd5b50565b615d0d81615ac5565b8114615d1857600080fd5b50565b615d2481615b11565b8114615d2f57600080fd5b5056fea2646970667358221220ce42292e6508933687ce8ca88ab88b5cf9d2f70a5e51347903e390378840e93364736f6c63430008000033",
  "linkReferences": {},
  "deployedLinkReferences": {}
}